:03000000020514E2
:0C051400787FE4F6D8FD758142020527CF
:1004D100C2B77F017E00120003D2B77F017E000206
:0204E100000316
:10047E007B007A00793A7F521202ACEF3395E04F4F
:10048E007016FB7A00793E1201A5EF3395E04F709E
:0C049E00DFD2991204D180D8C2B780D4FC
:1004AA00759850758921758780758DF3758BF3D290
:1004BA009CD2ACD2AFD28EC2B7120412120520124D
:0704CA0004F57F410203C7A6
:0300230002045084
:07045000C0E0C0D075D00828
:1004570030991FC299E4FFEFC394047480948050CD
:100467000F743E2FF8E6F5993099FDC2990F80E792
:02047700D29C15
:05047900D0D0D0E032FC
:060527001204AA02047E8A
:0802AC008F108B118A128913D7
:1002B4001204E37D077F0D1203707D037F14120582
:1002C40007851016752D01752E00752F00753016D3
:1002D4007531007532007533147B007A0079167F0E
:1002E4000C120026EFFD3395E04D7021E5156410E6
:1002F40045147019AB11AA12A913E516120259ABD1
:0F03040011AA12A913900001E51702026B7FFEE8
:0103130022C7
:0601A5008B108A11891283
:1001AB00E4F5141204E3E4FD7F0D1203707D807FF0
:1001BB000E1204E7751793751820752D02752E0016
:1001CB00752F007530177531007532007533157B3F
:1001DB00007A0079177F0C1200268F13EF3395E00E
:1001EB004F7034FFEFC3940474809480501D7417C8
:1001FB002FF8E6AB10AA11A9128F82758300120299
:10020B006B74172FF8E662140F80D974172FF8E66A
:10021B00651460037513FE7D807F0E120507AF1307
:01022B0022B0
:10041200D2B600C2B600D2B6007D0F7F01120370C1
:10042200007D3D7F111203707D1E7F2D120370E44B
:10043200FD7F2C1203707D8D7F2A1203707D3E7F1B
:0E0442002B1203707D407F151203707F002285
:1003C700EF644170401204E37D3D7F111203707D9D
:1003D700867F171203707D7F7F261203707D1E7F35
:1003E7002D120370E4FD7F2C1203707D8D7F2A127E
:1003F70003707D3E7F2B1203707F017E0012000386
:0B0407001204F580037FFF227F00221B
:06031400AC07AB05E4FE9E
:10031A00E4FEC2B3C2B2EF25E0547E4480FF7D08FA
:10032A00EDD39400748094804018EF5480648070F8
:10033A0003D38001C392B4D2B3EF25E0FFC2B31D49
:10034A0080DE7D08EDD39400748094804011D2B38E
:10035A00EE25E0FEA2B5E4334206C2B31D80E5D223
:05036A00B2D2B3AF06A2
:01036F00226B
:10037000C2B3C2B2EF25E0547EFF7E08EED39400F4
:10038000748094804018EF548064807003D380019F
:10039000C392B4D2B3EF25E0FFC2B31E80DE7E0865
:1003A000EED39400748094804018ED548064807083
:1003B00003D38001C392B4D2B3ED25E0FDC2B31ED6
:0603C00080DED2B2D2B3D0
:0103C6002214
:0D050700120314AE07AF04EB4EFD020370AB
:0404E3007D087F0809
:0E04E700120314AE07AF04EBF45EFD020370C7
:080026008F298B2A8A2B892CFB
:10002E007534FEE4F535F536E52924F4600C24FE2E
:10003E00700E75351275361080067535777536303B
:10004E00E5354480FD7F021203707D807F0412042B
:10005E00E7E4FD7F011203707D807F0A120507E43D
:10006E00F538F539C3E539952DE5389400501FABB9
:10007E002AAA2BA92C85398285388312022CFD7F62
:10008E00091203700539E53970DA053880D6AD29C5
:10009E007F01120370E529640C70077D807F0D12BD
:1000AE0005077538077539D07F0412031A8F37E5A7
:1000BE0039153970021538E53945386009E53720AC
:1000CE00E004553660E27D807F0D1204E7E5394588
:1000DE003870030201947F0612031AEF541B60035B
:1000EE00020191F534E537553530E0037534FFE5FF
:1000FE0029640C60030201947F0A12031A8F377F62
:10010E000C12031AEF5407FD6021E53724FFFFE4BC
:10011E0034FFFEEF7803C333CE33CED8F97C002DF7
:10012E00FFEC3EAB31AA32A933800FE53775F008EC
:10013E00A4FFAB31AA32A933E5F08FF012028DE5A0
:10014E00377003753701D3E537941274809480406D
:10015E0003753712E4F538F539C3E5399537E538C7
:10016E00940050227F0912031AAB2EAA2FA93085B4
:10017E003982853883EF12026B0539E53970DA055D
:10018E003880D67534FE7D807F0C120507E4FD7F26
:06019E0001120370AF34F2
:0101A4002238
:1004F5007F1412031AEF540370077D037F1412054E
:0105050007EE
:0105060022D2
:070520007D037F140204E7D4
:10000300E4F5CAF5CCD2CAEF1FAC0670011E4C60F2
:0B0013000730CFFDC2CF80EFC2CA2231
:10022C00BB010CE58229F582E5833AF583E0225087
:10023C0006E92582F8E622BBFE06E92582F8E222D1
:0D024C00E58229F582E5833AF583E49322EB
:10025900BB010689828A83F0225002F722BBFE0184
:02026900F3227E
:10026B00F8BB010DE58229F582E5833AF583E8F0C9
:10027B00225006E92582C8F622BBFE05E92582C875
:02028B00F2225D
:10028D00BB010A89828A83F0E5F0A3F0225006F7BC
:0F029D0009A7F01922BBFE06F3E5F009F31922B9
:00000001FF
