:03000000020553A3
:0C055300787FE4F6D8FD7581440205664F
:10051000C2B77F017E001204DBD2B77F017E0002EA
:0205200004DBFA
:100488007B007A00793C7F521202ACEF3395E04F43
:100498007016FB7A0079401201A5EF3395E04F7092
:0C04A800DFD29912051080D8C2B780D4B2
:1004B400759850758921758780758DF3758BF3D286
:1004C4009CD2ACD2AFD28EC2B712041212055F1204
:0704D40005347F410203C75C
:10000300D3EF9400EE6480948040147D6E7C00ED09
:0F0013001D70011CED4C70F7EF1F70E41E80E1B3
:0100220022BB
:1004F600C2B0E4FBFA7FC87E00120003B2B00BBBA9
:0905060000010AEB64034A70ECE9
:01050F0022C9
:0300230002045084
:07045000C0E0C0D075D00828
:100457003098071204F6D2B0C29830991FC299E4B7
:10046700FFEFC3940474809480500F74402FF8E614
:0C047700F5993099FDC2990F80E7D29CE6
:05048300D0D0D0E032F2
:060566001204B402048837
:0802AC008F128B138A148915CF
:1002B4001205227D077F0D1203707D037F14120542
:1002C40046851218752F0175300075310075321886
:1002D4007533007534007535167B007A0079187F04
:1002E4000C120026EFFD3395E04D7021E5176410E4
:1002F40045167019AB13AA14A915E518120259ABC7
:0F03040013AA14A915900001E51902026B7FFEE0
:0103130022C7
:0601A5008B128A1389147D
:1001AB00E4F516120522E4FD7F0D1203707D807FAE
:1001BB000E120526751993751A20752F02753000CE
:1001CB007531007532197533007534007535177B31
:1001DB00007A0079197F0C1200268F15EF3395E00A
:1001EB004F7034FFEFC3940474809480501D7419C6
:1001FB002FF8E6AB12AA13A9148F82758300120293
:10020B006B74192FF8E662160F80D974192FF8E664
:10021B00651660037515FE7D807F0E120546AF15C2
:01022B0022B0
:10041200D2B600C2B600D2B6007D0F7F01120370C1
:10042200007D3D7F111203707D1E7F2D120370E44B
:10043200FD7F2C1203707D8D7F2A1203707D3E7F1B
:0E0442002B1203707D407F151203707F002285
:1003C700EF644170401205227D3D7F111203707D5D
:1003D700867F171203707D7F7F261203707D1E7F35
:1003E7002D120370E4FD7F2C1203707D8D7F2A127E
:1003F70003707D3E7F2B1203707F017E001204DBAA
:0B04070012053480037FFF227F0022DB
:06031400AC07AB05E4FE9E
:10031A00E4FEC2B3C2B2EF25E0547E4480FF7D08FA
:10032A00EDD39400748094804018EF5480648070F8
:10033A0003D38001C392B4D2B3EF25E0FFC2B31D49
:10034A0080DE7D08EDD39400748094804011D2B38E
:10035A00EE25E0FEA2B5E4334206C2B31D80E5D223
:05036A00B2D2B3AF06A2
:01036F00226B
:10037000C2B3C2B2EF25E0547EFF7E08EED39400F4
:10038000748094804018EF548064807003D380019F
:10039000C392B4D2B3EF25E0FFC2B31E80DE7E0865
:1003A000EED39400748094804018ED548064807083
:1003B00003D38001C392B4D2B3ED25E0FDC2B31ED6
:0603C00080DED2B2D2B3D0
:0103C6002214
:0D054600120314AE07AF04EB4EFD0203706C
:040522007D087F08C9
:0E052600120314AE07AF04EBF45EFD02037087
:080026008F2B8B2C8A2D892EF3
:10002E007536FEE4F537F538E52B24F4600C24FE26
:10003E00700E753712753810800675377775383033
:10004E00E5374480FD7F021203707D807F04120528
:10005E0026E4FD7F011203707D807F0A120546E4BF
:10006E00F53AF53BC3E53B952FE53A9400501FABAF
:10007E002CAA2DA92E853B82853A8312022CFD7F58
:10008E0009120370053BE53B70DA053A80D6AD2BBD
:10009E007F01120370E52B640C70077D807F0D12BB
:1000AE000546753A07753BD07F0412031A8F39E562
:1000BE003B153B7002153AE53B453A6009E53920A0
:1000CE00E004553860E27D807F0D120526E53B4544
:1000DE003A70030201947F0612031AEF541B600359
:1000EE00020191F536E539553730E0037536FFE5F7
:1000FE002B640C60030201947F0A12031A8F397F5E
:10010E000C12031AEF5407FD6021E53924FFFFE4BA
:10011E0034FFFEEF7803C333CE33CED8F97C002DF7
:10012E00FFEC3EAB33AA34A935800FE53975F008E4
:10013E00A4FFAB33AA34A935E5F08FF012028DE59A
:10014E00397003753901D3E5399412748094804067
:10015E0003753912E4F53AF53BC3E53B9539E53ABB
:10016E00940050227F0912031AAB30AA31A93285AE
:10017E003B82853A83EF12026B053BE53B70DA0555
:10018E003A80D67536FE7D807F0C120546E4FD7FE3
:06019E0001120370AF36F0
:0101A4002238
:100534007F1412031AEF540370077D037F1412050E
:010544004670
:010545002293
:07055F007D037F1402052655
:1004DB00E4F5CAF5CCD2CAEF1FAC0670011E4C6016
:0B04EB000730CFFDC2CF80EFC2CA2255
:10022C00BB010CE58229F582E5833AF583E0225087
:10023C0006E92582F8E622BBFE06E92582F8E222D1
:0D024C00E58229F582E5833AF583E49322EB
:10025900BB010689828A83F0225002F722BBFE0184
:02026900F3227E
:10026B00F8BB010DE58229F582E5833AF583E8F0C9
:10027B00225006E92582C8F622BBFE05E92582C875
:02028B00F2225D
:10028D00BB010A89828A83F0E5F0A3F0225006F7BC
:0F029D0009A7F01922BBFE06F3E5F009F31922B9
:00000001FF
